{
  "contractName": "SupplyChain",
  "abi": [
    {
      "anonymous": false,
      "inputs": [
        {
          "indexed": false,
          "internalType": "uint256",
          "name": "id",
          "type": "uint256"
        }
      ],
      "name": "LogForSale",
      "type": "event"
    },
    {
      "anonymous": false,
      "inputs": [
        {
          "indexed": false,
          "internalType": "uint256",
          "name": "id",
          "type": "uint256"
        }
      ],
      "name": "LogItemRemoved",
      "type": "event"
    },
    {
      "anonymous": false,
      "inputs": [
        {
          "indexed": false,
          "internalType": "uint256",
          "name": "id",
          "type": "uint256"
        }
      ],
      "name": "LogReceived",
      "type": "event"
    },
    {
      "anonymous": false,
      "inputs": [
        {
          "indexed": false,
          "internalType": "uint256",
          "name": "id",
          "type": "uint256"
        }
      ],
      "name": "LogShipped",
      "type": "event"
    },
    {
      "anonymous": false,
      "inputs": [
        {
          "indexed": false,
          "internalType": "uint256",
          "name": "id",
          "type": "uint256"
        }
      ],
      "name": "LogSold",
      "type": "event"
    },
    {
      "inputs": [],
      "name": "itemCounter",
      "outputs": [
        {
          "internalType": "uint256",
          "name": "",
          "type": "uint256"
        }
      ],
      "stateMutability": "view",
      "type": "function"
    },
    {
      "inputs": [
        {
          "internalType": "uint256",
          "name": "",
          "type": "uint256"
        }
      ],
      "name": "items",
      "outputs": [
        {
          "internalType": "uint256",
          "name": "id",
          "type": "uint256"
        },
        {
          "internalType": "string",
          "name": "name",
          "type": "string"
        },
        {
          "internalType": "uint256",
          "name": "price",
          "type": "uint256"
        },
        {
          "internalType": "enum SupplyChain.State",
          "name": "state",
          "type": "uint8"
        },
        {
          "internalType": "address payable",
          "name": "seller",
          "type": "address"
        },
        {
          "internalType": "address payable",
          "name": "buyer",
          "type": "address"
        }
      ],
      "stateMutability": "view",
      "type": "function"
    },
    {
      "inputs": [
        {
          "internalType": "string",
          "name": "_name",
          "type": "string"
        },
        {
          "internalType": "uint256",
          "name": "_price",
          "type": "uint256"
        }
      ],
      "name": "addItem",
      "outputs": [],
      "stateMutability": "nonpayable",
      "type": "function"
    },
    {
      "inputs": [
        {
          "internalType": "uint256",
          "name": "_id",
          "type": "uint256"
        }
      ],
      "name": "buyItem",
      "outputs": [],
      "stateMutability": "payable",
      "type": "function"
    },
    {
      "inputs": [
        {
          "internalType": "uint256",
          "name": "_id",
          "type": "uint256"
        }
      ],
      "name": "removeItem",
      "outputs": [],
      "stateMutability": "nonpayable",
      "type": "function"
    },
    {
      "inputs": [
        {
          "internalType": "uint256",
          "name": "_id",
          "type": "uint256"
        }
      ],
      "name": "shipItem",
      "outputs": [],
      "stateMutability": "nonpayable",
      "type": "function"
    },
    {
      "inputs": [
        {
          "internalType": "uint256",
          "name": "_id",
          "type": "uint256"
        }
      ],
      "name": "receiveItem",
      "outputs": [],
      "stateMutability": "nonpayable",
      "type": "function"
    }
  ],
  "bytecode": "0x608060405234801561000f575f80fd5b506115fd8061001d5f395ff3fe60806040526004361061006f575f3560e01c8063a26be9991161004d578063a26be999146100ed578063bfb231d214610115578063e7fb74c714610156578063f61c899a146101725761006f565b806362d6bbdf146100735780636d6d00ed1461009b57806371329171146100c5575b5f80fd5b34801561007e575f80fd5b5061009960048036038101906100949190610cca565b61019a565b005b3480156100a6575f80fd5b506100af610355565b6040516100bc9190610d33565b60405180910390f35b3480156100d0575f80fd5b506100eb60048036038101906100e69190610d4c565b61035b565b005b3480156100f8575f80fd5b50610113600480360381019061010e9190610d4c565b610478565b005b348015610120575f80fd5b5061013b60048036038101906101369190610d4c565b61060b565b60405161014d96959493929190610ea3565b60405180910390f35b610170600480360381019061016b9190610d4c565b610713565b005b34801561017d575f80fd5b5061019860048036038101906101939190610d4c565b61095e565b005b60015f8154809291906101ac90610f36565b91905055506040518060c001604052806001548152602001838152602001828152602001600160048111156101e4576101e3610df1565b5b81526020013373ffffffffffffffffffffffffffffffffffffffff1681526020015f73ffffffffffffffffffffffffffffffffffffffff168152505f8060015481526020019081526020015f205f820151815f0155602082015181600101908161024e9190611177565b50604082015181600201556060820151816003015f6101000a81548160ff0219169083600481111561028357610282610df1565b5b021790555060808201518160030160016101000a81548173ffffffffffffffffffffffffffffffffffffffff021916908373ffffffffffffffffffffffffffffffffffffffff16021790555060a0820151816004015f6101000a81548173ffffffffffffffffffffffffffffffffffffffff021916908373ffffffffffffffffffffffffffffffffffffffff1602179055509050507f4627c48065af2a9648cbecdd4b9da340c00e501243cd49a8a71c30c987e8b7616001546040516103499190610d33565b60405180910390a15050565b60015481565b5f805f8381526020019081526020015f205f0154036103af576040517f08c379a00000000000000000000000000000000000000000000000000000000081526004016103a690611290565b60405180910390fd5b5f808281526020019081526020015f205f8082015f9055600182015f6103d59190610af2565b600282015f9055600382015f6101000a81549060ff02191690556003820160016101000a81549073ffffffffffffffffffffffffffffffffffffffff0219169055600482015f6101000a81549073ffffffffffffffffffffffffffffffffffffffff021916905550507f2898e2b95651c99aeb328d049d8f35158543b4bc8d190a3ac0a908b8548e50ea8160405161046d9190610d33565b60405180910390a150565b805f808281526020019081526020015f206004015f9054906101000a900473ffffffffffffffffffffffffffffffffffffffff1673ffffffffffffffffffffffffffffffffffffffff163373ffffffffffffffffffffffffffffffffffffffff1614610519576040517f08c379a0000000000000000000000000000000000000000000000000000000008152600401610510906112f8565b60405180910390fd5b5f805f8481526020019081526020015f209050600360048111156105405761053f610df1565b5b816003015f9054906101000a900460ff16600481111561056357610562610df1565b5b146105a3576040517f08c379a000000000000000000000000000000000000000000000000000000000815260040161059a90611360565b60405180910390fd5b6004816003015f6101000a81548160ff021916908360048111156105ca576105c9610df1565b5b02179055507f5a98827d06afe0e04647b3aed26f1ffb77171ad9ac41603c4ef623a6638798c1836040516105fe9190610d33565b60405180910390a1505050565b5f602052805f5260405f205f91509050805f01549080600101805461062f90610faa565b80601f016020809104026020016040519081016040528092919081815260200182805461065b90610faa565b80156106a65780601f1061067d576101008083540402835291602001916106a6565b820191905f5260205f20905b81548152906001019060200180831161068957829003601f168201915b505050505090806002015490806003015f9054906101000a900460ff16908060030160019054906101000a900473ffffffffffffffffffffffffffffffffffffffff1690806004015f9054906101000a900473ffffffffffffffffffffffffffffffffffffffff16905086565b5f805f8381526020019081526020015f2090506001600481111561073a57610739610df1565b5b816003015f9054906101000a900460ff16600481111561075d5761075c610df1565b5b1461079d576040517f08c379a0000000000000000000000000000000000000000000000000000000008152600401610794906113c8565b60405180910390fd5b80600201543410156107e4576040517f08c379a00000000000000000000000000000000000000000000000000000000081526004016107db90611430565b60405180910390fd5b33816004015f6101000a81548173ffffffffffffffffffffffffffffffffffffffff021916908373ffffffffffffffffffffffffffffffffffffffff1602179055506002816003015f6101000a81548160ff0219169083600481111561084d5761084c610df1565b5b02179055505f8160030160019054906101000a900473ffffffffffffffffffffffffffffffffffffffff1673ffffffffffffffffffffffffffffffffffffffff16826002015460405161089f9061147b565b5f6040518083038185875af1925050503d805f81146108d9576040519150601f19603f3d011682016040523d82523d5f602084013e6108de565b606091505b5050905080610922576040517f08c379a0000000000000000000000000000000000000000000000000000000008152600401610919906114d9565b60405180910390fd5b7fe64ca8c671e48636f85f3008c1dd538e36bfa74fb6f2790b56b72fcc33b879ef836040516109519190610d33565b60405180910390a1505050565b805f808281526020019081526020015f2060030160019054906101000a900473ffffffffffffffffffffffffffffffffffffffff1673ffffffffffffffffffffffffffffffffffffffff163373ffffffffffffffffffffffffffffffffffffffff1614610a00576040517f08c379a00000000000000000000000000000000000000000000000000000000081526004016109f790611541565b60405180910390fd5b5f805f8481526020019081526020015f20905060026004811115610a2757610a26610df1565b5b816003015f9054906101000a900460ff166004811115610a4a57610a49610df1565b5b14610a8a576040517f08c379a0000000000000000000000000000000000000000000000000000000008152600401610a81906115a9565b60405180910390fd5b6003816003015f6101000a81548160ff02191690836004811115610ab157610ab0610df1565b5b02179055507feaf695929fec8154f0eafe7248c0e16855eb9ad09e623be92f669e544d53e85683604051610ae59190610d33565b60405180910390a1505050565b508054610afe90610faa565b5f825580601f10610b0f5750610b2c565b601f0160209004905f5260205f2090810190610b2b9190610b2f565b5b50565b5b80821115610b46575f815f905550600101610b30565b5090565b5f604051905090565b5f80fd5b5f80fd5b5f80fd5b5f80fd5b5f601f19601f8301169050919050565b7f4e487b71000000000000000000000000000000000000000000000000000000005f52604160045260245ffd5b610ba982610b63565b810181811067ffffffffffffffff82111715610bc857610bc7610b73565b5b80604052505050565b5f610bda610b4a565b9050610be68282610ba0565b919050565b5f67ffffffffffffffff821115610c0557610c04610b73565b5b610c0e82610b63565b9050602081019050919050565b828183375f83830152505050565b5f610c3b610c3684610beb565b610bd1565b905082815260208101848484011115610c5757610c56610b5f565b5b610c62848285610c1b565b509392505050565b5f82601f830112610c7e57610c7d610b5b565b5b8135610c8e848260208601610c29565b91505092915050565b5f819050919050565b610ca981610c97565b8114610cb3575f80fd5b50565b5f81359050610cc481610ca0565b92915050565b5f8060408385031215610ce057610cdf610b53565b5b5f83013567ffffffffffffffff811115610cfd57610cfc610b57565b5b610d0985828601610c6a565b9250506020610d1a85828601610cb6565b9150509250929050565b610d2d81610c97565b82525050565b5f602082019050610d465f830184610d24565b92915050565b5f60208284031215610d6157610d60610b53565b5b5f610d6e84828501610cb6565b91505092915050565b5f81519050919050565b5f82825260208201905092915050565b5f5b83811015610dae578082015181840152602081019050610d93565b5f8484015250505050565b5f610dc382610d77565b610dcd8185610d81565b9350610ddd818560208601610d91565b610de681610b63565b840191505092915050565b7f4e487b71000000000000000000000000000000000000000000000000000000005f52602160045260245ffd5b60058110610e2f57610e2e610df1565b5b50565b5f819050610e3f82610e1e565b919050565b5f610e4e82610e32565b9050919050565b610e5e81610e44565b82525050565b5f73ffffffffffffffffffffffffffffffffffffffff82169050919050565b5f610e8d82610e64565b9050919050565b610e9d81610e83565b82525050565b5f60c082019050610eb65f830189610d24565b8181036020830152610ec88188610db9565b9050610ed76040830187610d24565b610ee46060830186610e55565b610ef16080830185610e94565b610efe60a0830184610e94565b979650505050505050565b7f4e487b71000000000000000000000000000000000000000000000000000000005f52601160045260245ffd5b5f610f4082610c97565b91507fffffffffffffffffffffffffffffffffffffffffffffffffffffffffffffffff8203610f7257610f71610f09565b5b600182019050919050565b7f4e487b71000000000000000000000000000000000000000000000000000000005f52602260045260245ffd5b5f6002820490506001821680610fc157607f821691505b602082108103610fd457610fd3610f7d565b5b50919050565b5f819050815f5260205f209050919050565b5f6020601f8301049050919050565b5f82821b905092915050565b5f600883026110367fffffffffffffffffffffffffffffffffffffffffffffffffffffffffffffffff82610ffb565b6110408683610ffb565b95508019841693508086168417925050509392505050565b5f819050919050565b5f61107b61107661107184610c97565b611058565b610c97565b9050919050565b5f819050919050565b61109483611061565b6110a86110a082611082565b848454611007565b825550505050565b5f90565b6110bc6110b0565b6110c781848461108b565b505050565b5b818110156110ea576110df5f826110b4565b6001810190506110cd565b5050565b601f82111561112f5761110081610fda565b61110984610fec565b81016020851015611118578190505b61112c61112485610fec565b8301826110cc565b50505b505050565b5f82821c905092915050565b5f61114f5f1984600802611134565b1980831691505092915050565b5f6111678383611140565b9150826002028217905092915050565b61118082610d77565b67ffffffffffffffff81111561119957611198610b73565b5b6111a38254610faa565b6111ae8282856110ee565b5f60209050601f8311600181146111df575f84156111cd578287015190505b6111d7858261115c565b86555061123e565b601f1984166111ed86610fda565b5f5b82811015611214578489015182556001820191506020850194506020810190506111ef565b86831015611231578489015161122d601f891682611140565b8355505b6001600288020188555050505b505050505050565b7f4974656d20646f6573206e6f74206578697374000000000000000000000000005f82015250565b5f61127a601383610d81565b915061128582611246565b602082019050919050565b5f6020820190508181035f8301526112a78161126e565b9050919050565b7f4e6f7420617574686f72697a65643a204f6e6c792062757965720000000000005f82015250565b5f6112e2601a83610d81565b91506112ed826112ae565b602082019050919050565b5f6020820190508181035f83015261130f816112d6565b9050919050565b7f4974656d206e6f742073686970706564207965740000000000000000000000005f82015250565b5f61134a601483610d81565b915061135582611316565b602082019050919050565b5f6020820190508181035f8301526113778161133e565b9050919050565b7f4974656d206e6f7420666f722073616c650000000000000000000000000000005f82015250565b5f6113b2601183610d81565b91506113bd8261137e565b602082019050919050565b5f6020820190508181035f8301526113df816113a6565b9050919050565b7f496e73756666696369656e74207061796d656e740000000000000000000000005f82015250565b5f61141a601483610d81565b9150611425826113e6565b602082019050919050565b5f6020820190508181035f8301526114478161140e565b9050919050565b5f81905092915050565b50565b5f6114665f8361144e565b915061147182611458565b5f82019050919050565b5f6114858261145b565b9150819050919050565b7f5472616e7366657220746f2073656c6c6572206661696c6564000000000000005f82015250565b5f6114c3601983610d81565b91506114ce8261148f565b602082019050919050565b5f6020820190508181035f8301526114f0816114b7565b9050919050565b7f4e6f7420617574686f72697a65643a204f6e6c792073656c6c657200000000005f82015250565b5f61152b601b83610d81565b9150611536826114f7565b602082019050919050565b5f6020820190508181035f8301526115588161151f565b9050919050565b7f4974656d206e6f7420736f6c64207965740000000000000000000000000000005f82015250565b5f611593601183610d81565b915061159e8261155f565b602082019050919050565b5f6020820190508181035f8301526115c081611587565b905091905056fea2646970667358221220e591f245a750b7bb8d819f72dd00d7e93ef5bf1532d40a9d83a87f0303f83b9a64736f6c63430008150033",
  "immutableReferences": {},
  "source": "// SPDX-License-Identifier: MIT\npragma solidity ^0.8.21;\n\ncontract SupplyChain {\n    enum State { Created, ForSale, Sold, Shipped, Received }\n\n    struct Item {\n        uint256 id;\n        string name;\n        uint256 price;\n        State state;\n        address payable seller;\n        address payable buyer;\n    }\n\n    mapping(uint256 => Item) public items;\n    uint256 public itemCounter;\n\n    event LogForSale(uint256 id);\n    event LogSold(uint256 id);\n    event LogShipped(uint256 id);\n    event LogReceived(uint256 id);\n    event LogItemRemoved(uint256 id);\n\n    modifier onlySeller(uint256 _id) {\n        require(msg.sender == items[_id].seller, \"Not authorized: Only seller\");\n        _;\n    }\n\n    modifier onlyBuyer(uint256 _id) {\n        require(msg.sender == items[_id].buyer, \"Not authorized: Only buyer\");\n        _;\n    }\n\n    function addItem(string memory _name, uint256 _price) public {\n        itemCounter++;\n        items[itemCounter] = Item({\n            id: itemCounter,\n            name: _name,\n            price: _price,\n            state: State.ForSale,\n            seller: payable(msg.sender),\n            buyer: payable(address(0))\n        });\n        emit LogForSale(itemCounter);\n    }\n\n    function buyItem(uint256 _id) public payable {\n        Item storage item = items[_id];\n        require(item.state == State.ForSale, \"Item not for sale\");\n        require(msg.value >= item.price, \"Insufficient payment\");\n\n        item.buyer = payable(msg.sender);\n        item.state = State.Sold;\n\n        // Transfer funds to the seller\n        (bool success, ) = item.seller.call{value: item.price}(\"\");\n        require(success, \"Transfer to seller failed\");\n\n        emit LogSold(_id);\n    }\n\n    function removeItem(uint256 _id) public {\n        require(items[_id].id != 0, \"Item does not exist\");\n        delete items[_id];\n        emit LogItemRemoved(_id);\n    }\n\n    function shipItem(uint256 _id) public onlySeller(_id) {\n        Item storage item = items[_id];\n        require(item.state == State.Sold, \"Item not sold yet\");\n        item.state = State.Shipped;\n        emit LogShipped(_id);\n    }\n\n    function receiveItem(uint256 _id) public onlyBuyer(_id) {\n        Item storage item = items[_id];\n        require(item.state == State.Shipped, \"Item not shipped yet\");\n        item.state = State.Received;\n        emit LogReceived(_id);\n    }\n}\n",
  "sourcePath": "D:\\University\\SupplyChainDapp-Final-Project-master\\contracts\\SupplyChain.sol",
  "compiler": {
    "name": "solc",
    "version": "0.8.21+commit.d9974bed.Emscripten.clang"
  },
  "schemaVersion": "3.4.16",
  "updatedAt": "2024-11-30T16:54:03.357Z",
  "devdoc": {
    "kind": "dev",
    "methods": {},
    "version": 1
  },
  "userdoc": {
    "kind": "user",
    "methods": {},
    "version": 1
  }
}