{
  "contractName": "SupplyChain",
  "abi": [
    {
      "anonymous": false,
      "inputs": [
        {
          "indexed": false,
          "internalType": "uint256",
          "name": "id",
          "type": "uint256"
        }
      ],
      "name": "LogForSale",
      "type": "event"
    },
    {
      "anonymous": false,
      "inputs": [
        {
          "indexed": false,
          "internalType": "uint256",
          "name": "id",
          "type": "uint256"
        }
      ],
      "name": "LogItemRemoved",
      "type": "event"
    },
    {
      "anonymous": false,
      "inputs": [
        {
          "indexed": false,
          "internalType": "uint256",
          "name": "id",
          "type": "uint256"
        }
      ],
      "name": "LogSold",
      "type": "event"
    },
    {
      "inputs": [],
      "name": "itemCounter",
      "outputs": [
        {
          "internalType": "uint256",
          "name": "",
          "type": "uint256"
        }
      ],
      "stateMutability": "view",
      "type": "function",
      "constant": true
    },
    {
      "inputs": [
        {
          "internalType": "uint256",
          "name": "",
          "type": "uint256"
        }
      ],
      "name": "items",
      "outputs": [
        {
          "internalType": "uint256",
          "name": "id",
          "type": "uint256"
        },
        {
          "internalType": "string",
          "name": "name",
          "type": "string"
        },
        {
          "internalType": "uint256",
          "name": "price",
          "type": "uint256"
        },
        {
          "internalType": "uint256",
          "name": "quantity",
          "type": "uint256"
        },
        {
          "internalType": "enum SupplyChain.State",
          "name": "state",
          "type": "uint8"
        },
        {
          "internalType": "address payable",
          "name": "seller",
          "type": "address"
        },
        {
          "internalType": "address payable",
          "name": "buyer",
          "type": "address"
        }
      ],
      "stateMutability": "view",
      "type": "function",
      "constant": true
    },
    {
      "inputs": [
        {
          "internalType": "address",
          "name": "",
          "type": "address"
        }
      ],
      "name": "roles",
      "outputs": [
        {
          "internalType": "enum SupplyChain.Role",
          "name": "",
          "type": "uint8"
        }
      ],
      "stateMutability": "view",
      "type": "function",
      "constant": true
    },
    {
      "inputs": [
        {
          "internalType": "enum SupplyChain.Role",
          "name": "_role",
          "type": "uint8"
        }
      ],
      "name": "setRole",
      "outputs": [],
      "stateMutability": "nonpayable",
      "type": "function"
    },
    {
      "inputs": [
        {
          "internalType": "string",
          "name": "_name",
          "type": "string"
        },
        {
          "internalType": "uint256",
          "name": "_price",
          "type": "uint256"
        },
        {
          "internalType": "uint256",
          "name": "_quantity",
          "type": "uint256"
        }
      ],
      "name": "addItem",
      "outputs": [],
      "stateMutability": "nonpayable",
      "type": "function"
    },
    {
      "inputs": [
        {
          "internalType": "uint256",
          "name": "_id",
          "type": "uint256"
        },
        {
          "internalType": "uint256",
          "name": "_quantity",
          "type": "uint256"
        }
      ],
      "name": "buyItem",
      "outputs": [],
      "stateMutability": "payable",
      "type": "function",
      "payable": true
    },
    {
      "inputs": [
        {
          "internalType": "uint256",
          "name": "_id",
          "type": "uint256"
        }
      ],
      "name": "removeItem",
      "outputs": [],
      "stateMutability": "nonpayable",
      "type": "function"
    }
  ],
  "bytecode": "0x608060405234801561000f575f80fd5b506116038061001d5f395ff3fe60806040526004361061006f575f3560e01c8063993746421161004d57806399374642146100ed5780639979c00914610129578063bfb231d214610145578063d5e6c333146101875761006f565b806307f6af8a146100735780636d6d00ed1461009b57806371329171146100c5575b5f80fd5b34801561007e575f80fd5b5061009960048036038101906100949190610a23565b6101af565b005b3480156100a6575f80fd5b506100af610216565b6040516100bc9190610a66565b60405180910390f35b3480156100d0575f80fd5b506100eb60048036038101906100e69190610aa9565b61021c565b005b3480156100f8575f80fd5b50610113600480360381019061010e9190610b2e565b61038f565b6040516101209190610bcc565b60405180910390f35b610143600480360381019061013e9190610be5565b6103ac565b005b348015610150575f80fd5b5061016b60048036038101906101669190610aa9565b61067b565b60405161017e9796959493929190610d13565b60405180910390f35b348015610192575f80fd5b506101ad60048036038101906101a89190610eb3565b610789565b005b8060015f3373ffffffffffffffffffffffffffffffffffffffff1673ffffffffffffffffffffffffffffffffffffffff1681526020019081526020015f205f6101000a81548160ff0219169083600281111561020e5761020d610b59565b5b021790555050565b60025481565b803373ffffffffffffffffffffffffffffffffffffffff165f808381526020019081526020015f2060040160019054906101000a900473ffffffffffffffffffffffffffffffffffffffff1673ffffffffffffffffffffffffffffffffffffffff16146102be576040517f08c379a00000000000000000000000000000000000000000000000000000000081526004016102b590610f8f565b60405180910390fd5b5f808381526020019081526020015f205f8082015f9055600182015f6102e49190610997565b600282015f9055600382015f9055600482015f6101000a81549060ff02191690556004820160016101000a81549073ffffffffffffffffffffffffffffffffffffffff0219169055600582015f6101000a81549073ffffffffffffffffffffffffffffffffffffffff021916905550507f2898e2b95651c99aeb328d049d8f35158543b4bc8d190a3ac0a908b8548e50ea826040516103839190610a66565b60405180910390a15050565b6001602052805f5260405f205f915054906101000a900460ff1681565b5f805f8481526020019081526020015f209050600160048111156103d3576103d2610b59565b5b816004015f9054906101000a900460ff1660048111156103f6576103f5610b59565b5b14610436576040517f08c379a000000000000000000000000000000000000000000000000000000000815260040161042d90610ff7565b60405180910390fd5b818160030154101561047d576040517f08c379a00000000000000000000000000000000000000000000000000000000081526004016104749061105f565b60405180910390fd5b81816002015461048d91906110aa565b3410156104cf576040517f08c379a00000000000000000000000000000000000000000000000000000000081526004016104c690611135565b60405180910390fd5b81816003015f8282546104e29190611153565b925050819055505f816003015403610521576002816004015f6101000a81548160ff0219169083600481111561051b5761051a610b59565b5b02179055505b33816005015f6101000a81548173ffffffffffffffffffffffffffffffffffffffff021916908373ffffffffffffffffffffffffffffffffffffffff1602179055505f8160040160019054906101000a900473ffffffffffffffffffffffffffffffffffffffff1673ffffffffffffffffffffffffffffffffffffffff168383600201546105af91906110aa565b6040516105bb906111b3565b5f6040518083038185875af1925050503d805f81146105f5576040519150601f19603f3d011682016040523d82523d5f602084013e6105fa565b606091505b505090508061063e576040517f08c379a000000000000000000000000000000000000000000000000000000000815260040161063590611211565b60405180910390fd5b7fe64ca8c671e48636f85f3008c1dd538e36bfa74fb6f2790b56b72fcc33b879ef8460405161066d9190610a66565b60405180910390a150505050565b5f602052805f5260405f205f91509050805f01549080600101805461069f9061125c565b80601f01602080910402602001604051908101604052809291908181526020018280546106cb9061125c565b80156107165780601f106106ed57610100808354040283529160200191610716565b820191905f5260205f20905b8154815290600101906020018083116106f957829003601f168201915b505050505090806002015490806003015490806004015f9054906101000a900460ff16908060040160019054906101000a900473ffffffffffffffffffffffffffffffffffffffff1690806005015f9054906101000a900473ffffffffffffffffffffffffffffffffffffffff16905087565b5f81116107cb576040517f08c379a00000000000000000000000000000000000000000000000000000000081526004016107c2906112fc565b60405180910390fd5b60025f8154809291906107dd9061131a565b91905055506040518060e0016040528060025481526020018481526020018381526020018281526020016001600481111561081b5761081a610b59565b5b81526020013373ffffffffffffffffffffffffffffffffffffffff1681526020015f73ffffffffffffffffffffffffffffffffffffffff168152505f8060025481526020019081526020015f205f820151815f0155602082015181600101908161088591906114fe565b5060408201518160020155606082015181600301556080820151816004015f6101000a81548160ff021916908360048111156108c4576108c3610b59565b5b021790555060a08201518160040160016101000a81548173ffffffffffffffffffffffffffffffffffffffff021916908373ffffffffffffffffffffffffffffffffffffffff16021790555060c0820151816005015f6101000a81548173ffffffffffffffffffffffffffffffffffffffff021916908373ffffffffffffffffffffffffffffffffffffffff1602179055509050507f4627c48065af2a9648cbecdd4b9da340c00e501243cd49a8a71c30c987e8b76160025460405161098a9190610a66565b60405180910390a1505050565b5080546109a39061125c565b5f825580601f106109b457506109d1565b601f0160209004905f5260205f20908101906109d091906109d4565b5b50565b5b808211156109eb575f815f9055506001016109d5565b5090565b5f604051905090565b5f80fd5b5f80fd5b60038110610a0c575f80fd5b50565b5f81359050610a1d81610a00565b92915050565b5f60208284031215610a3857610a376109f8565b5b5f610a4584828501610a0f565b91505092915050565b5f819050919050565b610a6081610a4e565b82525050565b5f602082019050610a795f830184610a57565b92915050565b610a8881610a4e565b8114610a92575f80fd5b50565b5f81359050610aa381610a7f565b92915050565b5f60208284031215610abe57610abd6109f8565b5b5f610acb84828501610a95565b91505092915050565b5f73ffffffffffffffffffffffffffffffffffffffff82169050919050565b5f610afd82610ad4565b9050919050565b610b0d81610af3565b8114610b17575f80fd5b50565b5f81359050610b2881610b04565b92915050565b5f60208284031215610b4357610b426109f8565b5b5f610b5084828501610b1a565b91505092915050565b7f4e487b71000000000000000000000000000000000000000000000000000000005f52602160045260245ffd5b60038110610b9757610b96610b59565b5b50565b5f819050610ba782610b86565b919050565b5f610bb682610b9a565b9050919050565b610bc681610bac565b82525050565b5f602082019050610bdf5f830184610bbd565b92915050565b5f8060408385031215610bfb57610bfa6109f8565b5b5f610c0885828601610a95565b9250506020610c1985828601610a95565b9150509250929050565b5f81519050919050565b5f82825260208201905092915050565b5f5b83811015610c5a578082015181840152602081019050610c3f565b5f8484015250505050565b5f601f19601f8301169050919050565b5f610c7f82610c23565b610c898185610c2d565b9350610c99818560208601610c3d565b610ca281610c65565b840191505092915050565b60058110610cbe57610cbd610b59565b5b50565b5f819050610cce82610cad565b919050565b5f610cdd82610cc1565b9050919050565b610ced81610cd3565b82525050565b5f610cfd82610ad4565b9050919050565b610d0d81610cf3565b82525050565b5f60e082019050610d265f83018a610a57565b8181036020830152610d388189610c75565b9050610d476040830188610a57565b610d546060830187610a57565b610d616080830186610ce4565b610d6e60a0830185610d04565b610d7b60c0830184610d04565b98975050505050505050565b5f80fd5b5f80fd5b7f4e487b71000000000000000000000000000000000000000000000000000000005f52604160045260245ffd5b610dc582610c65565b810181811067ffffffffffffffff82111715610de457610de3610d8f565b5b80604052505050565b5f610df66109ef565b9050610e028282610dbc565b919050565b5f67ffffffffffffffff821115610e2157610e20610d8f565b5b610e2a82610c65565b9050602081019050919050565b828183375f83830152505050565b5f610e57610e5284610e07565b610ded565b905082815260208101848484011115610e7357610e72610d8b565b5b610e7e848285610e37565b509392505050565b5f82601f830112610e9a57610e99610d87565b5b8135610eaa848260208601610e45565b91505092915050565b5f805f60608486031215610eca57610ec96109f8565b5b5f84013567ffffffffffffffff811115610ee757610ee66109fc565b5b610ef386828701610e86565b9350506020610f0486828701610a95565b9250506040610f1586828701610a95565b9150509250925092565b7f4e6f7420617574686f72697a65643a204e6f7420746865206974656d277320735f8201527f656c6c6572000000000000000000000000000000000000000000000000000000602082015250565b5f610f79602583610c2d565b9150610f8482610f1f565b604082019050919050565b5f6020820190508181035f830152610fa681610f6d565b9050919050565b7f4974656d206e6f7420666f722073616c650000000000000000000000000000005f82015250565b5f610fe1601183610c2d565b9150610fec82610fad565b602082019050919050565b5f6020820190508181035f83015261100e81610fd5565b9050919050565b7f4e6f7420656e6f756768207175616e7469747920617661696c61626c650000005f82015250565b5f611049601d83610c2d565b915061105482611015565b602082019050919050565b5f6020820190508181035f8301526110768161103d565b9050919050565b7f4e487b71000000000000000000000000000000000000000000000000000000005f52601160045260245ffd5b5f6110b482610a4e565b91506110bf83610a4e565b92508282026110cd81610a4e565b915082820484148315176110e4576110e361107d565b5b5092915050565b7f496e73756666696369656e74207061796d656e740000000000000000000000005f82015250565b5f61111f601483610c2d565b915061112a826110eb565b602082019050919050565b5f6020820190508181035f83015261114c81611113565b9050919050565b5f61115d82610a4e565b915061116883610a4e565b92508282039050818111156111805761117f61107d565b5b92915050565b5f81905092915050565b50565b5f61119e5f83611186565b91506111a982611190565b5f82019050919050565b5f6111bd82611193565b9150819050919050565b7f5472616e7366657220746f2073656c6c6572206661696c6564000000000000005f82015250565b5f6111fb601983610c2d565b9150611206826111c7565b602082019050919050565b5f6020820190508181035f830152611228816111ef565b9050919050565b7f4e487b71000000000000000000000000000000000000000000000000000000005f52602260045260245ffd5b5f600282049050600182168061127357607f821691505b6020821081036112865761128561122f565b5b50919050565b7f5175616e74697479206d7573742062652067726561746572207468616e207a655f8201527f726f000000000000000000000000000000000000000000000000000000000000602082015250565b5f6112e6602283610c2d565b91506112f18261128c565b604082019050919050565b5f6020820190508181035f830152611313816112da565b9050919050565b5f61132482610a4e565b91507fffffffffffffffffffffffffffffffffffffffffffffffffffffffffffffffff82036113565761135561107d565b5b600182019050919050565b5f819050815f5260205f209050919050565b5f6020601f8301049050919050565b5f82821b905092915050565b5f600883026113bd7fffffffffffffffffffffffffffffffffffffffffffffffffffffffffffffffff82611382565b6113c78683611382565b95508019841693508086168417925050509392505050565b5f819050919050565b5f6114026113fd6113f884610a4e565b6113df565b610a4e565b9050919050565b5f819050919050565b61141b836113e8565b61142f61142782611409565b84845461138e565b825550505050565b5f90565b611443611437565b61144e818484611412565b505050565b5b81811015611471576114665f8261143b565b600181019050611454565b5050565b601f8211156114b65761148781611361565b61149084611373565b8101602085101561149f578190505b6114b36114ab85611373565b830182611453565b50505b505050565b5f82821c905092915050565b5f6114d65f19846008026114bb565b1980831691505092915050565b5f6114ee83836114c7565b9150826002028217905092915050565b61150782610c23565b67ffffffffffffffff8111156115205761151f610d8f565b5b61152a825461125c565b611535828285611475565b5f60209050601f831160018114611566575f8415611554578287015190505b61155e85826114e3565b8655506115c5565b601f19841661157486611361565b5f5b8281101561159b57848901518255600182019150602085019450602081019050611576565b868310156115b857848901516115b4601f8916826114c7565b8355505b6001600288020188555050505b50505050505056fea264697066735822122006f2c74951752c8a3a42680a94ed7dda8d31cf46a653481ebc8dbb284ab360be64736f6c63430008150033",
  "immutableReferences": {},
  "source": "// SPDX-License-Identifier: MIT\r\npragma solidity ^0.8.21;\r\n\r\ncontract SupplyChain {\r\n    enum State { Created, ForSale, Sold, Shipped, Received }\r\n    enum Role { None, Buyer, Seller } // Roles: None, Buyer, Seller\r\n\r\n    struct Item {\r\n        uint256 id;\r\n        string name;\r\n        uint256 price;\r\n        uint256 quantity;\r\n        State state;\r\n        address payable seller;\r\n        address payable buyer;\r\n    }\r\n\r\n    mapping(uint256 => Item) public items;\r\n    mapping(address => Role) public roles; // Map accounts to roles\r\n    uint256 public itemCounter;\r\n\r\n    event LogForSale(uint256 id);\r\n    event LogSold(uint256 id);\r\n    event LogItemRemoved(uint256 id);\r\n\r\n    modifier onlySeller() {\r\n        require(roles[msg.sender] == Role.Seller, \"Not authorized: Must be seller\");\r\n        _;\r\n    }\r\n\r\n    modifier onlyBuyer() {\r\n        require(roles[msg.sender] == Role.Buyer, \"Not authorized: Must be buyer\");\r\n        _;\r\n    }\r\n\r\n    modifier onlySellerOfItem(uint256 _id) {\r\n        require(items[_id].seller == msg.sender, \"Not authorized: Not the item's seller\");\r\n        _;\r\n    }\r\n\r\n    function setRole(Role _role) public {\r\n        roles[msg.sender] = _role;\r\n    }\r\n\r\n    function addItem(string memory _name, uint256 _price, uint256 _quantity) public {\r\n        require(_quantity > 0, \"Quantity must be greater than zero\");\r\n        itemCounter++;\r\n        items[itemCounter] = Item({\r\n            id: itemCounter,\r\n            name: _name,\r\n            price: _price,\r\n            quantity: _quantity,\r\n            state: State.ForSale,\r\n            seller: payable(msg.sender),\r\n            buyer: payable(address(0))\r\n        });\r\n        emit LogForSale(itemCounter);\r\n    }\r\n\r\n    function buyItem(uint256 _id, uint256 _quantity) public payable {\r\n        Item storage item = items[_id];\r\n        require(item.state == State.ForSale, \"Item not for sale\");\r\n        require(item.quantity >= _quantity, \"Not enough quantity available\");\r\n        require(msg.value >= item.price * _quantity, \"Insufficient payment\");\r\n\r\n        item.quantity -= _quantity;\r\n\r\n        if (item.quantity == 0) {\r\n            item.state = State.Sold;\r\n        }\r\n\r\n        item.buyer = payable(msg.sender);\r\n        (bool success, ) = item.seller.call{value: item.price * _quantity}(\"\");\r\n        require(success, \"Transfer to seller failed\");\r\n\r\n        emit LogSold(_id);\r\n    }\r\n\r\n    function removeItem(uint256 _id) public onlySellerOfItem(_id) {\r\n        delete items[_id];\r\n        emit LogItemRemoved(_id);\r\n    }\r\n}\r\n",
  "sourcePath": "D:\\University\\SupplyChainDapp-Final-Project\\contracts\\SupplyChain.sol",
  "compiler": {
    "name": "solc",
    "version": "0.8.21+commit.d9974bed.Emscripten.clang"
  },
  "schemaVersion": "3.4.16",
  "updatedAt": "2024-12-18T17:54:57.700Z",
  "networkType": "ethereum",
  "devdoc": {
    "kind": "dev",
    "methods": {},
    "version": 1
  },
  "userdoc": {
    "kind": "user",
    "methods": {},
    "version": 1
  }
}