{
  "contractName": "SupplyChain",
  "abi": [
    {
      "anonymous": false,
      "inputs": [
        {
          "indexed": false,
          "internalType": "uint256",
          "name": "id",
          "type": "uint256"
        }
      ],
      "name": "LogForSale",
      "type": "event"
    },
    {
      "anonymous": false,
      "inputs": [
        {
          "indexed": false,
          "internalType": "uint256",
          "name": "id",
          "type": "uint256"
        }
      ],
      "name": "LogReceived",
      "type": "event"
    },
    {
      "anonymous": false,
      "inputs": [
        {
          "indexed": false,
          "internalType": "uint256",
          "name": "id",
          "type": "uint256"
        }
      ],
      "name": "LogShipped",
      "type": "event"
    },
    {
      "anonymous": false,
      "inputs": [
        {
          "indexed": false,
          "internalType": "uint256",
          "name": "id",
          "type": "uint256"
        }
      ],
      "name": "LogSold",
      "type": "event"
    },
    {
      "inputs": [],
      "name": "itemCounter",
      "outputs": [
        {
          "internalType": "uint256",
          "name": "",
          "type": "uint256"
        }
      ],
      "stateMutability": "view",
      "type": "function"
    },
    {
      "inputs": [
        {
          "internalType": "uint256",
          "name": "",
          "type": "uint256"
        }
      ],
      "name": "items",
      "outputs": [
        {
          "internalType": "uint256",
          "name": "id",
          "type": "uint256"
        },
        {
          "internalType": "string",
          "name": "name",
          "type": "string"
        },
        {
          "internalType": "uint256",
          "name": "price",
          "type": "uint256"
        },
        {
          "internalType": "enum SupplyChain.State",
          "name": "state",
          "type": "uint8"
        },
        {
          "internalType": "address payable",
          "name": "seller",
          "type": "address"
        },
        {
          "internalType": "address payable",
          "name": "buyer",
          "type": "address"
        }
      ],
      "stateMutability": "view",
      "type": "function"
    },
    {
      "inputs": [
        {
          "internalType": "string",
          "name": "_name",
          "type": "string"
        },
        {
          "internalType": "uint256",
          "name": "_price",
          "type": "uint256"
        }
      ],
      "name": "addItem",
      "outputs": [],
      "stateMutability": "nonpayable",
      "type": "function"
    },
    {
      "inputs": [
        {
          "internalType": "uint256",
          "name": "_id",
          "type": "uint256"
        }
      ],
      "name": "buyItem",
      "outputs": [],
      "stateMutability": "payable",
      "type": "function"
    },
    {
      "inputs": [
        {
          "internalType": "uint256",
          "name": "_id",
          "type": "uint256"
        }
      ],
      "name": "shipItem",
      "outputs": [],
      "stateMutability": "nonpayable",
      "type": "function"
    },
    {
      "inputs": [
        {
          "internalType": "uint256",
          "name": "_id",
          "type": "uint256"
        }
      ],
      "name": "receiveItem",
      "outputs": [],
      "stateMutability": "nonpayable",
      "type": "function"
    }
  ],
  "bytecode": "0x608060405234801561000f575f80fd5b506113dd8061001d5f395ff3fe608060405260043610610054575f3560e01c806362d6bbdf146100585780636d6d00ed14610080578063a26be999146100aa578063bfb231d2146100d2578063e7fb74c714610113578063f61c899a1461012f575b5f80fd5b348015610063575f80fd5b5061007e60048036038101906100799190610b12565b610157565b005b34801561008b575f80fd5b50610094610312565b6040516100a19190610b7b565b60405180910390f35b3480156100b5575f80fd5b506100d060048036038101906100cb9190610b94565b610318565b005b3480156100dd575f80fd5b506100f860048036038101906100f39190610b94565b6104ab565b60405161010a96959493929190610ceb565b60405180910390f35b61012d60048036038101906101289190610b94565b6105b3565b005b34801561013a575f80fd5b5061015560048036038101906101509190610b94565b6107fe565b005b60015f81548092919061016990610d7e565b91905055506040518060c001604052806001548152602001838152602001828152602001600160048111156101a1576101a0610c39565b5b81526020013373ffffffffffffffffffffffffffffffffffffffff1681526020015f73ffffffffffffffffffffffffffffffffffffffff168152505f8060015481526020019081526020015f205f820151815f0155602082015181600101908161020b9190610fbf565b50604082015181600201556060820151816003015f6101000a81548160ff021916908360048111156102405761023f610c39565b5b021790555060808201518160030160016101000a81548173ffffffffffffffffffffffffffffffffffffffff021916908373ffffffffffffffffffffffffffffffffffffffff16021790555060a0820151816004015f6101000a81548173ffffffffffffffffffffffffffffffffffffffff021916908373ffffffffffffffffffffffffffffffffffffffff1602179055509050507f4627c48065af2a9648cbecdd4b9da340c00e501243cd49a8a71c30c987e8b7616001546040516103069190610b7b565b60405180910390a15050565b60015481565b805f808281526020019081526020015f206004015f9054906101000a900473ffffffffffffffffffffffffffffffffffffffff1673ffffffffffffffffffffffffffffffffffffffff163373ffffffffffffffffffffffffffffffffffffffff16146103b9576040517f08c379a00000000000000000000000000000000000000000000000000000000081526004016103b0906110d8565b60405180910390fd5b5f805f8481526020019081526020015f209050600360048111156103e0576103df610c39565b5b816003015f9054906101000a900460ff16600481111561040357610402610c39565b5b14610443576040517f08c379a000000000000000000000000000000000000000000000000000000000815260040161043a90611140565b60405180910390fd5b6004816003015f6101000a81548160ff0219169083600481111561046a57610469610c39565b5b02179055507f5a98827d06afe0e04647b3aed26f1ffb77171ad9ac41603c4ef623a6638798c18360405161049e9190610b7b565b60405180910390a1505050565b5f602052805f5260405f205f91509050805f0154908060010180546104cf90610df2565b80601f01602080910402602001604051908101604052809291908181526020018280546104fb90610df2565b80156105465780601f1061051d57610100808354040283529160200191610546565b820191905f5260205f20905b81548152906001019060200180831161052957829003601f168201915b505050505090806002015490806003015f9054906101000a900460ff16908060030160019054906101000a900473ffffffffffffffffffffffffffffffffffffffff1690806004015f9054906101000a900473ffffffffffffffffffffffffffffffffffffffff16905086565b5f805f8381526020019081526020015f209050600160048111156105da576105d9610c39565b5b816003015f9054906101000a900460ff1660048111156105fd576105fc610c39565b5b1461063d576040517f08c379a0000000000000000000000000000000000000000000000000000000008152600401610634906111a8565b60405180910390fd5b8060020154341015610684576040517f08c379a000000000000000000000000000000000000000000000000000000000815260040161067b90611210565b60405180910390fd5b33816004015f6101000a81548173ffffffffffffffffffffffffffffffffffffffff021916908373ffffffffffffffffffffffffffffffffffffffff1602179055506002816003015f6101000a81548160ff021916908360048111156106ed576106ec610c39565b5b02179055505f8160030160019054906101000a900473ffffffffffffffffffffffffffffffffffffffff1673ffffffffffffffffffffffffffffffffffffffff16826002015460405161073f9061125b565b5f6040518083038185875af1925050503d805f8114610779576040519150601f19603f3d011682016040523d82523d5f602084013e61077e565b606091505b50509050806107c2576040517f08c379a00000000000000000000000000000000000000000000000000000000081526004016107b9906112b9565b60405180910390fd5b7fe64ca8c671e48636f85f3008c1dd538e36bfa74fb6f2790b56b72fcc33b879ef836040516107f19190610b7b565b60405180910390a1505050565b805f808281526020019081526020015f2060030160019054906101000a900473ffffffffffffffffffffffffffffffffffffffff1673ffffffffffffffffffffffffffffffffffffffff163373ffffffffffffffffffffffffffffffffffffffff16146108a0576040517f08c379a000000000000000000000000000000000000000000000000000000000815260040161089790611321565b60405180910390fd5b5f805f8481526020019081526020015f209050600260048111156108c7576108c6610c39565b5b816003015f9054906101000a900460ff1660048111156108ea576108e9610c39565b5b1461092a576040517f08c379a000000000000000000000000000000000000000000000000000000000815260040161092190611389565b60405180910390fd5b6003816003015f6101000a81548160ff0219169083600481111561095157610950610c39565b5b02179055507feaf695929fec8154f0eafe7248c0e16855eb9ad09e623be92f669e544d53e856836040516109859190610b7b565b60405180910390a1505050565b5f604051905090565b5f80fd5b5f80fd5b5f80fd5b5f80fd5b5f601f19601f8301169050919050565b7f4e487b71000000000000000000000000000000000000000000000000000000005f52604160045260245ffd5b6109f1826109ab565b810181811067ffffffffffffffff82111715610a1057610a0f6109bb565b5b80604052505050565b5f610a22610992565b9050610a2e82826109e8565b919050565b5f67ffffffffffffffff821115610a4d57610a4c6109bb565b5b610a56826109ab565b9050602081019050919050565b828183375f83830152505050565b5f610a83610a7e84610a33565b610a19565b905082815260208101848484011115610a9f57610a9e6109a7565b5b610aaa848285610a63565b509392505050565b5f82601f830112610ac657610ac56109a3565b5b8135610ad6848260208601610a71565b91505092915050565b5f819050919050565b610af181610adf565b8114610afb575f80fd5b50565b5f81359050610b0c81610ae8565b92915050565b5f8060408385031215610b2857610b2761099b565b5b5f83013567ffffffffffffffff811115610b4557610b4461099f565b5b610b5185828601610ab2565b9250506020610b6285828601610afe565b9150509250929050565b610b7581610adf565b82525050565b5f602082019050610b8e5f830184610b6c565b92915050565b5f60208284031215610ba957610ba861099b565b5b5f610bb684828501610afe565b91505092915050565b5f81519050919050565b5f82825260208201905092915050565b5f5b83811015610bf6578082015181840152602081019050610bdb565b5f8484015250505050565b5f610c0b82610bbf565b610c158185610bc9565b9350610c25818560208601610bd9565b610c2e816109ab565b840191505092915050565b7f4e487b71000000000000000000000000000000000000000000000000000000005f52602160045260245ffd5b60058110610c7757610c76610c39565b5b50565b5f819050610c8782610c66565b919050565b5f610c9682610c7a565b9050919050565b610ca681610c8c565b82525050565b5f73ffffffffffffffffffffffffffffffffffffffff82169050919050565b5f610cd582610cac565b9050919050565b610ce581610ccb565b82525050565b5f60c082019050610cfe5f830189610b6c565b8181036020830152610d108188610c01565b9050610d1f6040830187610b6c565b610d2c6060830186610c9d565b610d396080830185610cdc565b610d4660a0830184610cdc565b979650505050505050565b7f4e487b71000000000000000000000000000000000000000000000000000000005f52601160045260245ffd5b5f610d8882610adf565b91507fffffffffffffffffffffffffffffffffffffffffffffffffffffffffffffffff8203610dba57610db9610d51565b5b600182019050919050565b7f4e487b71000000000000000000000000000000000000000000000000000000005f52602260045260245ffd5b5f6002820490506001821680610e0957607f821691505b602082108103610e1c57610e1b610dc5565b5b50919050565b5f819050815f5260205f209050919050565b5f6020601f8301049050919050565b5f82821b905092915050565b5f60088302610e7e7fffffffffffffffffffffffffffffffffffffffffffffffffffffffffffffffff82610e43565b610e888683610e43565b95508019841693508086168417925050509392505050565b5f819050919050565b5f610ec3610ebe610eb984610adf565b610ea0565b610adf565b9050919050565b5f819050919050565b610edc83610ea9565b610ef0610ee882610eca565b848454610e4f565b825550505050565b5f90565b610f04610ef8565b610f0f818484610ed3565b505050565b5b81811015610f3257610f275f82610efc565b600181019050610f15565b5050565b601f821115610f7757610f4881610e22565b610f5184610e34565b81016020851015610f60578190505b610f74610f6c85610e34565b830182610f14565b50505b505050565b5f82821c905092915050565b5f610f975f1984600802610f7c565b1980831691505092915050565b5f610faf8383610f88565b9150826002028217905092915050565b610fc882610bbf565b67ffffffffffffffff811115610fe157610fe06109bb565b5b610feb8254610df2565b610ff6828285610f36565b5f60209050601f831160018114611027575f8415611015578287015190505b61101f8582610fa4565b865550611086565b601f19841661103586610e22565b5f5b8281101561105c57848901518255600182019150602085019450602081019050611037565b868310156110795784890151611075601f891682610f88565b8355505b6001600288020188555050505b505050505050565b7f4e6f7420617574686f72697a65643a204f6e6c792062757965720000000000005f82015250565b5f6110c2601a83610bc9565b91506110cd8261108e565b602082019050919050565b5f6020820190508181035f8301526110ef816110b6565b9050919050565b7f4974656d206e6f742073686970706564207965740000000000000000000000005f82015250565b5f61112a601483610bc9565b9150611135826110f6565b602082019050919050565b5f6020820190508181035f8301526111578161111e565b9050919050565b7f4974656d206e6f7420666f722073616c650000000000000000000000000000005f82015250565b5f611192601183610bc9565b915061119d8261115e565b602082019050919050565b5f6020820190508181035f8301526111bf81611186565b9050919050565b7f496e73756666696369656e74207061796d656e740000000000000000000000005f82015250565b5f6111fa601483610bc9565b9150611205826111c6565b602082019050919050565b5f6020820190508181035f830152611227816111ee565b9050919050565b5f81905092915050565b50565b5f6112465f8361122e565b915061125182611238565b5f82019050919050565b5f6112658261123b565b9150819050919050565b7f5472616e7366657220746f2073656c6c6572206661696c6564000000000000005f82015250565b5f6112a3601983610bc9565b91506112ae8261126f565b602082019050919050565b5f6020820190508181035f8301526112d081611297565b9050919050565b7f4e6f7420617574686f72697a65643a204f6e6c792073656c6c657200000000005f82015250565b5f61130b601b83610bc9565b9150611316826112d7565b602082019050919050565b5f6020820190508181035f830152611338816112ff565b9050919050565b7f4974656d206e6f7420736f6c64207965740000000000000000000000000000005f82015250565b5f611373601183610bc9565b915061137e8261133f565b602082019050919050565b5f6020820190508181035f8301526113a081611367565b905091905056fea26469706673582212207f77fa61a37174b47d7941b9e398a3018763ec6318aae6cb0424a25af74bbb4064736f6c63430008150033",
  "immutableReferences": {},
  "source": "// SPDX-License-Identifier: MIT\npragma solidity ^0.8.21;\n\ncontract SupplyChain {\n    enum State { Created, ForSale, Sold, Shipped, Received }\n\n    struct Item {\n        uint256 id;\n        string name;\n        uint256 price;\n        State state;\n        address payable seller;\n        address payable buyer;\n    }\n\n    mapping(uint256 => Item) public items;\n    uint256 public itemCounter;\n\n    event LogForSale(uint256 id);\n    event LogSold(uint256 id);\n    event LogShipped(uint256 id);\n    event LogReceived(uint256 id);\n\n    modifier onlySeller(uint256 _id) {\n        require(msg.sender == items[_id].seller, \"Not authorized: Only seller\");\n        _;\n    }\n\n    modifier onlyBuyer(uint256 _id) {\n        require(msg.sender == items[_id].buyer, \"Not authorized: Only buyer\");\n        _;\n    }\n\n    function addItem(string memory _name, uint256 _price) public {\n        itemCounter++;\n        items[itemCounter] = Item({\n            id: itemCounter,\n            name: _name,\n            price: _price,\n            state: State.ForSale,\n            seller: payable(msg.sender),\n            buyer: payable(address(0))\n        });\n        emit LogForSale(itemCounter);\n    }\n\n    function buyItem(uint256 _id) public payable {\n        Item storage item = items[_id];\n        require(item.state == State.ForSale, \"Item not for sale\");\n        require(msg.value >= item.price, \"Insufficient payment\");\n\n        item.buyer = payable(msg.sender);\n        item.state = State.Sold;\n\n        // Transfer funds to the seller\n        (bool success, ) = item.seller.call{value: item.price}(\"\");\n        require(success, \"Transfer to seller failed\");\n\n        emit LogSold(_id);\n    }\n\n    function shipItem(uint256 _id) public onlySeller(_id) {\n        Item storage item = items[_id];\n        require(item.state == State.Sold, \"Item not sold yet\");\n        item.state = State.Shipped;\n        emit LogShipped(_id);\n    }\n\n    function receiveItem(uint256 _id) public onlyBuyer(_id) {\n        Item storage item = items[_id];\n        require(item.state == State.Shipped, \"Item not shipped yet\");\n        item.state = State.Received;\n        emit LogReceived(_id);\n    }\n}\n",
  "sourcePath": "D:\\University\\SupplyChainDapp-Final-Project-master\\contracts\\SupplyChain.sol",
  "compiler": {
    "name": "solc",
    "version": "0.8.21+commit.d9974bed.Emscripten.clang"
  },
  "schemaVersion": "3.4.16",
  "updatedAt": "2024-11-27T17:31:06.280Z",
  "devdoc": {
    "kind": "dev",
    "methods": {},
    "version": 1
  },
  "userdoc": {
    "kind": "user",
    "methods": {},
    "version": 1
  }
}