{
  "contractName": "SupplyChain",
  "abi": [
    {
      "anonymous": false,
      "inputs": [
        {
          "indexed": false,
          "internalType": "uint256",
          "name": "id",
          "type": "uint256"
        }
      ],
      "name": "LogForSale",
      "type": "event"
    },
    {
      "anonymous": false,
      "inputs": [
        {
          "indexed": false,
          "internalType": "uint256",
          "name": "id",
          "type": "uint256"
        }
      ],
      "name": "LogItemRemoved",
      "type": "event"
    },
    {
      "anonymous": false,
      "inputs": [
        {
          "indexed": true,
          "internalType": "address",
          "name": "account",
          "type": "address"
        },
        {
          "indexed": false,
          "internalType": "enum SupplyChain.Role",
          "name": "role",
          "type": "uint8"
        }
      ],
      "name": "LogRoleAssigned",
      "type": "event"
    },
    {
      "anonymous": false,
      "inputs": [
        {
          "indexed": false,
          "internalType": "uint256",
          "name": "id",
          "type": "uint256"
        }
      ],
      "name": "LogSold",
      "type": "event"
    },
    {
      "inputs": [],
      "name": "itemCounter",
      "outputs": [
        {
          "internalType": "uint256",
          "name": "",
          "type": "uint256"
        }
      ],
      "stateMutability": "view",
      "type": "function",
      "constant": true
    },
    {
      "inputs": [
        {
          "internalType": "uint256",
          "name": "",
          "type": "uint256"
        }
      ],
      "name": "items",
      "outputs": [
        {
          "internalType": "uint256",
          "name": "id",
          "type": "uint256"
        },
        {
          "internalType": "string",
          "name": "name",
          "type": "string"
        },
        {
          "internalType": "uint256",
          "name": "price",
          "type": "uint256"
        },
        {
          "internalType": "uint256",
          "name": "quantity",
          "type": "uint256"
        },
        {
          "internalType": "enum SupplyChain.State",
          "name": "state",
          "type": "uint8"
        },
        {
          "internalType": "address payable",
          "name": "seller",
          "type": "address"
        },
        {
          "internalType": "address payable",
          "name": "buyer",
          "type": "address"
        }
      ],
      "stateMutability": "view",
      "type": "function",
      "constant": true
    },
    {
      "inputs": [
        {
          "internalType": "address",
          "name": "",
          "type": "address"
        }
      ],
      "name": "roles",
      "outputs": [
        {
          "internalType": "enum SupplyChain.Role",
          "name": "",
          "type": "uint8"
        }
      ],
      "stateMutability": "view",
      "type": "function",
      "constant": true
    },
    {
      "inputs": [
        {
          "internalType": "address",
          "name": "account",
          "type": "address"
        },
        {
          "internalType": "uint8",
          "name": "role",
          "type": "uint8"
        }
      ],
      "name": "setRole",
      "outputs": [],
      "stateMutability": "nonpayable",
      "type": "function"
    },
    {
      "inputs": [
        {
          "internalType": "string",
          "name": "_name",
          "type": "string"
        },
        {
          "internalType": "uint256",
          "name": "_price",
          "type": "uint256"
        },
        {
          "internalType": "uint256",
          "name": "_quantity",
          "type": "uint256"
        }
      ],
      "name": "addItem",
      "outputs": [],
      "stateMutability": "nonpayable",
      "type": "function"
    },
    {
      "inputs": [
        {
          "internalType": "uint256",
          "name": "_id",
          "type": "uint256"
        },
        {
          "internalType": "uint256",
          "name": "_quantity",
          "type": "uint256"
        }
      ],
      "name": "buyItem",
      "outputs": [],
      "stateMutability": "payable",
      "type": "function",
      "payable": true
    },
    {
      "inputs": [
        {
          "internalType": "uint256",
          "name": "_id",
          "type": "uint256"
        }
      ],
      "name": "removeItem",
      "outputs": [],
      "stateMutability": "nonpayable",
      "type": "function"
    }
  ],
  "bytecode": "0x608060405234801561000f575f80fd5b506119528061001d5f395ff3fe60806040526004361061006f575f3560e01c8063993746421161004d57806399374642146100ed5780639979c00914610129578063bfb231d214610145578063d5e6c333146101875761006f565b8063571c3e60146100735780636d6d00ed1461009b57806371329171146100c5575b5f80fd5b34801561007e575f80fd5b5061009960048036038101906100949190610c81565b6101af565b005b3480156100a6575f80fd5b506100af610358565b6040516100bc9190610cd7565b60405180910390f35b3480156100d0575f80fd5b506100eb60048036038101906100e69190610d1a565b61035e565b005b3480156100f8575f80fd5b50610113600480360381019061010e9190610d45565b6104d1565b6040516101209190610de3565b60405180910390f35b610143600480360381019061013e9190610dfc565b6104ee565b005b348015610150575f80fd5b5061016b60048036038101906101669190610d1a565b6107bd565b60405161017e9796959493929190610f2a565b60405180910390f35b348015610192575f80fd5b506101ad60048036038101906101a891906110ca565b6108cb565b005b5f73ffffffffffffffffffffffffffffffffffffffff168273ffffffffffffffffffffffffffffffffffffffff160361021d576040517f08c379a000000000000000000000000000000000000000000000000000000000815260040161021490611180565b60405180910390fd5b6002808111156102305761022f610d70565b5b60ff168160ff161115610278576040517f08c379a000000000000000000000000000000000000000000000000000000000815260040161026f906111e8565b60405180910390fd5b8060ff16600281111561028e5761028d610d70565b5b60015f8473ffffffffffffffffffffffffffffffffffffffff1673ffffffffffffffffffffffffffffffffffffffff1681526020019081526020015f205f6101000a81548160ff021916908360028111156102ec576102eb610d70565b5b02179055508173ffffffffffffffffffffffffffffffffffffffff167f6e59f97799f3e9bd197ee43f3288b05e94722b5b71b7b6c3ad6b2cdec0b4670d8260ff16600281111561033f5761033e610d70565b5b60405161034c9190610de3565b60405180910390a25050565b60025481565b803373ffffffffffffffffffffffffffffffffffffffff165f808381526020019081526020015f2060040160019054906101000a900473ffffffffffffffffffffffffffffffffffffffff1673ffffffffffffffffffffffffffffffffffffffff1614610400576040517f08c379a00000000000000000000000000000000000000000000000000000000081526004016103f790611276565b60405180910390fd5b5f808381526020019081526020015f205f8082015f9055600182015f6104269190610b88565b600282015f9055600382015f9055600482015f6101000a81549060ff02191690556004820160016101000a81549073ffffffffffffffffffffffffffffffffffffffff0219169055600582015f6101000a81549073ffffffffffffffffffffffffffffffffffffffff021916905550507f2898e2b95651c99aeb328d049d8f35158543b4bc8d190a3ac0a908b8548e50ea826040516104c59190610cd7565b60405180910390a15050565b6001602052805f5260405f205f915054906101000a900460ff1681565b5f805f8481526020019081526020015f2090506001600481111561051557610514610d70565b5b816004015f9054906101000a900460ff16600481111561053857610537610d70565b5b14610578576040517f08c379a000000000000000000000000000000000000000000000000000000000815260040161056f906112de565b60405180910390fd5b81816003015410156105bf576040517f08c379a00000000000000000000000000000000000000000000000000000000081526004016105b690611346565b60405180910390fd5b8181600201546105cf9190611391565b341015610611576040517f08c379a00000000000000000000000000000000000000000000000000000000081526004016106089061141c565b60405180910390fd5b81816003015f828254610624919061143a565b925050819055505f816003015403610663576002816004015f6101000a81548160ff0219169083600481111561065d5761065c610d70565b5b02179055505b33816005015f6101000a81548173ffffffffffffffffffffffffffffffffffffffff021916908373ffffffffffffffffffffffffffffffffffffffff1602179055505f8160040160019054906101000a900473ffffffffffffffffffffffffffffffffffffffff1673ffffffffffffffffffffffffffffffffffffffff168383600201546106f19190611391565b6040516106fd9061149a565b5f6040518083038185875af1925050503d805f8114610737576040519150601f19603f3d011682016040523d82523d5f602084013e61073c565b606091505b5050905080610780576040517f08c379a0000000000000000000000000000000000000000000000000000000008152600401610777906114f8565b60405180910390fd5b7fe64ca8c671e48636f85f3008c1dd538e36bfa74fb6f2790b56b72fcc33b879ef846040516107af9190610cd7565b60405180910390a150505050565b5f602052805f5260405f205f91509050805f0154908060010180546107e190611543565b80601f016020809104026020016040519081016040528092919081815260200182805461080d90611543565b80156108585780601f1061082f57610100808354040283529160200191610858565b820191905f5260205f20905b81548152906001019060200180831161083b57829003601f168201915b505050505090806002015490806003015490806004015f9054906101000a900460ff16908060040160019054906101000a900473ffffffffffffffffffffffffffffffffffffffff1690806005015f9054906101000a900473ffffffffffffffffffffffffffffffffffffffff16905087565b6002808111156108de576108dd610d70565b5b60015f3373ffffffffffffffffffffffffffffffffffffffff1673ffffffffffffffffffffffffffffffffffffffff1681526020019081526020015f205f9054906101000a900460ff16600281111561093a57610939610d70565b5b1461097a576040517f08c379a0000000000000000000000000000000000000000000000000000000008152600401610971906115bd565b60405180910390fd5b5f81116109bc576040517f08c379a00000000000000000000000000000000000000000000000000000000081526004016109b39061164b565b60405180910390fd5b60025f8154809291906109ce90611669565b91905055506040518060e00160405280600254815260200184815260200183815260200182815260200160016004811115610a0c57610a0b610d70565b5b81526020013373ffffffffffffffffffffffffffffffffffffffff1681526020015f73ffffffffffffffffffffffffffffffffffffffff168152505f8060025481526020019081526020015f205f820151815f01556020820151816001019081610a76919061184d565b5060408201518160020155606082015181600301556080820151816004015f6101000a81548160ff02191690836004811115610ab557610ab4610d70565b5b021790555060a08201518160040160016101000a81548173ffffffffffffffffffffffffffffffffffffffff021916908373ffffffffffffffffffffffffffffffffffffffff16021790555060c0820151816005015f6101000a81548173ffffffffffffffffffffffffffffffffffffffff021916908373ffffffffffffffffffffffffffffffffffffffff1602179055509050507f4627c48065af2a9648cbecdd4b9da340c00e501243cd49a8a71c30c987e8b761600254604051610b7b9190610cd7565b60405180910390a1505050565b508054610b9490611543565b5f825580601f10610ba55750610bc2565b601f0160209004905f5260205f2090810190610bc19190610bc5565b5b50565b5b80821115610bdc575f815f905550600101610bc6565b5090565b5f604051905090565b5f80fd5b5f80fd5b5f73ffffffffffffffffffffffffffffffffffffffff82169050919050565b5f610c1a82610bf1565b9050919050565b610c2a81610c10565b8114610c34575f80fd5b50565b5f81359050610c4581610c21565b92915050565b5f60ff82169050919050565b610c6081610c4b565b8114610c6a575f80fd5b50565b5f81359050610c7b81610c57565b92915050565b5f8060408385031215610c9757610c96610be9565b5b5f610ca485828601610c37565b9250506020610cb585828601610c6d565b9150509250929050565b5f819050919050565b610cd181610cbf565b82525050565b5f602082019050610cea5f830184610cc8565b92915050565b610cf981610cbf565b8114610d03575f80fd5b50565b5f81359050610d1481610cf0565b92915050565b5f60208284031215610d2f57610d2e610be9565b5b5f610d3c84828501610d06565b91505092915050565b5f60208284031215610d5a57610d59610be9565b5b5f610d6784828501610c37565b91505092915050565b7f4e487b71000000000000000000000000000000000000000000000000000000005f52602160045260245ffd5b60038110610dae57610dad610d70565b5b50565b5f819050610dbe82610d9d565b919050565b5f610dcd82610db1565b9050919050565b610ddd81610dc3565b82525050565b5f602082019050610df65f830184610dd4565b92915050565b5f8060408385031215610e1257610e11610be9565b5b5f610e1f85828601610d06565b9250506020610e3085828601610d06565b9150509250929050565b5f81519050919050565b5f82825260208201905092915050565b5f5b83811015610e71578082015181840152602081019050610e56565b5f8484015250505050565b5f601f19601f8301169050919050565b5f610e9682610e3a565b610ea08185610e44565b9350610eb0818560208601610e54565b610eb981610e7c565b840191505092915050565b60058110610ed557610ed4610d70565b5b50565b5f819050610ee582610ec4565b919050565b5f610ef482610ed8565b9050919050565b610f0481610eea565b82525050565b5f610f1482610bf1565b9050919050565b610f2481610f0a565b82525050565b5f60e082019050610f3d5f83018a610cc8565b8181036020830152610f4f8189610e8c565b9050610f5e6040830188610cc8565b610f6b6060830187610cc8565b610f786080830186610efb565b610f8560a0830185610f1b565b610f9260c0830184610f1b565b98975050505050505050565b5f80fd5b5f80fd5b7f4e487b71000000000000000000000000000000000000000000000000000000005f52604160045260245ffd5b610fdc82610e7c565b810181811067ffffffffffffffff82111715610ffb57610ffa610fa6565b5b80604052505050565b5f61100d610be0565b90506110198282610fd3565b919050565b5f67ffffffffffffffff82111561103857611037610fa6565b5b61104182610e7c565b9050602081019050919050565b828183375f83830152505050565b5f61106e6110698461101e565b611004565b90508281526020810184848401111561108a57611089610fa2565b5b61109584828561104e565b509392505050565b5f82601f8301126110b1576110b0610f9e565b5b81356110c184826020860161105c565b91505092915050565b5f805f606084860312156110e1576110e0610be9565b5b5f84013567ffffffffffffffff8111156110fe576110fd610bed565b5b61110a8682870161109d565b935050602061111b86828701610d06565b925050604061112c86828701610d06565b9150509250925092565b7f496e76616c6964206163636f756e7420616464726573730000000000000000005f82015250565b5f61116a601783610e44565b915061117582611136565b602082019050919050565b5f6020820190508181035f8301526111978161115e565b9050919050565b7f496e76616c696420726f6c652076616c756500000000000000000000000000005f82015250565b5f6111d2601283610e44565b91506111dd8261119e565b602082019050919050565b5f6020820190508181035f8301526111ff816111c6565b9050919050565b7f4e6f7420617574686f72697a65643a204e6f7420746865206974656d277320735f8201527f656c6c6572000000000000000000000000000000000000000000000000000000602082015250565b5f611260602583610e44565b915061126b82611206565b604082019050919050565b5f6020820190508181035f83015261128d81611254565b9050919050565b7f4974656d206e6f7420666f722073616c650000000000000000000000000000005f82015250565b5f6112c8601183610e44565b91506112d382611294565b602082019050919050565b5f6020820190508181035f8301526112f5816112bc565b9050919050565b7f4e6f7420656e6f756768207175616e7469747920617661696c61626c650000005f82015250565b5f611330601d83610e44565b915061133b826112fc565b602082019050919050565b5f6020820190508181035f83015261135d81611324565b9050919050565b7f4e487b71000000000000000000000000000000000000000000000000000000005f52601160045260245ffd5b5f61139b82610cbf565b91506113a683610cbf565b92508282026113b481610cbf565b915082820484148315176113cb576113ca611364565b5b5092915050565b7f496e73756666696369656e74207061796d656e740000000000000000000000005f82015250565b5f611406601483610e44565b9150611411826113d2565b602082019050919050565b5f6020820190508181035f830152611433816113fa565b9050919050565b5f61144482610cbf565b915061144f83610cbf565b925082820390508181111561146757611466611364565b5b92915050565b5f81905092915050565b50565b5f6114855f8361146d565b915061149082611477565b5f82019050919050565b5f6114a48261147a565b9150819050919050565b7f5472616e7366657220746f2073656c6c6572206661696c6564000000000000005f82015250565b5f6114e2601983610e44565b91506114ed826114ae565b602082019050919050565b5f6020820190508181035f83015261150f816114d6565b9050919050565b7f4e487b71000000000000000000000000000000000000000000000000000000005f52602260045260245ffd5b5f600282049050600182168061155a57607f821691505b60208210810361156d5761156c611516565b5b50919050565b7f4e6f7420617574686f72697a65643a204d7573742062652073656c6c657200005f82015250565b5f6115a7601e83610e44565b91506115b282611573565b602082019050919050565b5f6020820190508181035f8301526115d48161159b565b9050919050565b7f5175616e74697479206d7573742062652067726561746572207468616e207a655f8201527f726f000000000000000000000000000000000000000000000000000000000000602082015250565b5f611635602283610e44565b9150611640826115db565b604082019050919050565b5f6020820190508181035f83015261166281611629565b9050919050565b5f61167382610cbf565b91507fffffffffffffffffffffffffffffffffffffffffffffffffffffffffffffffff82036116a5576116a4611364565b5b600182019050919050565b5f819050815f5260205f209050919050565b5f6020601f8301049050919050565b5f82821b905092915050565b5f6008830261170c7fffffffffffffffffffffffffffffffffffffffffffffffffffffffffffffffff826116d1565b61171686836116d1565b95508019841693508086168417925050509392505050565b5f819050919050565b5f61175161174c61174784610cbf565b61172e565b610cbf565b9050919050565b5f819050919050565b61176a83611737565b61177e61177682611758565b8484546116dd565b825550505050565b5f90565b611792611786565b61179d818484611761565b505050565b5b818110156117c0576117b55f8261178a565b6001810190506117a3565b5050565b601f821115611805576117d6816116b0565b6117df846116c2565b810160208510156117ee578190505b6118026117fa856116c2565b8301826117a2565b50505b505050565b5f82821c905092915050565b5f6118255f198460080261180a565b1980831691505092915050565b5f61183d8383611816565b9150826002028217905092915050565b61185682610e3a565b67ffffffffffffffff81111561186f5761186e610fa6565b5b6118798254611543565b6118848282856117c4565b5f60209050601f8311600181146118b5575f84156118a3578287015190505b6118ad8582611832565b865550611914565b601f1984166118c3866116b0565b5f5b828110156118ea578489015182556001820191506020850194506020810190506118c5565b868310156119075784890151611903601f891682611816565b8355505b6001600288020188555050505b50505050505056fea264697066735822122008352d074cbf040ca962450f56fe37865509218fbd012e5a3f901323603c76db64736f6c63430008150033",
  "immutableReferences": {},
  "source": "// SPDX-License-Identifier: MIT\r\npragma solidity ^0.8.21;\r\n\r\ncontract SupplyChain {\r\n    enum State { Created, ForSale, Sold, Shipped, Received }\r\n    enum Role { None, Buyer, Seller } // Roles: None, Buyer, Seller\r\n\r\n    struct Item {\r\n        uint256 id;\r\n        string name;\r\n        uint256 price;\r\n        uint256 quantity;\r\n        State state;\r\n        address payable seller;\r\n        address payable buyer;\r\n    }\r\n\r\n    mapping(uint256 => Item) public items;\r\n    mapping(address => Role) public roles; // Map accounts to roles\r\n    uint256 public itemCounter;\r\n\r\n    // Declare events\r\n    event LogForSale(uint256 id);\r\n    event LogSold(uint256 id);\r\n    event LogItemRemoved(uint256 id);\r\n    event LogRoleAssigned(address indexed account, Role role); // New event\r\n\r\n    modifier onlySeller() {\r\n        require(roles[msg.sender] == Role.Seller, \"Not authorized: Must be seller\");\r\n        _;\r\n    }\r\n\r\n    modifier onlySellerOfItem(uint256 _id) {\r\n        require(items[_id].seller == msg.sender, \"Not authorized: Not the item's seller\");\r\n        _;\r\n    }\r\n\r\n    function setRole(address account, uint8 role) public {\r\n        require(account != address(0), \"Invalid account address\");\r\n        require(role <= uint8(Role.Seller), \"Invalid role value\");\r\n        \r\n        roles[account] = Role(role);\r\n        emit LogRoleAssigned(account, Role(role));\r\n    }\r\n\r\n    function addItem(string memory _name, uint256 _price, uint256 _quantity) public onlySeller {\r\n        require(_quantity > 0, \"Quantity must be greater than zero\");\r\n        itemCounter++;\r\n        items[itemCounter] = Item({\r\n            id: itemCounter,\r\n            name: _name,\r\n            price: _price,\r\n            quantity: _quantity,\r\n            state: State.ForSale,\r\n            seller: payable(msg.sender),\r\n            buyer: payable(address(0))\r\n        });\r\n        emit LogForSale(itemCounter);\r\n    }\r\n\r\n    function buyItem(uint256 _id, uint256 _quantity) public payable {\r\n        Item storage item = items[_id];\r\n        require(item.state == State.ForSale, \"Item not for sale\");\r\n        require(item.quantity >= _quantity, \"Not enough quantity available\");\r\n        require(msg.value >= item.price * _quantity, \"Insufficient payment\");\r\n\r\n        item.quantity -= _quantity;\r\n\r\n        if (item.quantity == 0) {\r\n            item.state = State.Sold;\r\n        }\r\n\r\n        item.buyer = payable(msg.sender);\r\n        (bool success, ) = item.seller.call{value: item.price * _quantity}(\"\");\r\n        require(success, \"Transfer to seller failed\");\r\n\r\n        emit LogSold(_id);\r\n    }\r\n\r\n    function removeItem(uint256 _id) public onlySellerOfItem(_id) {\r\n        delete items[_id];\r\n        emit LogItemRemoved(_id);\r\n    }\r\n}\r\n",
  "sourcePath": "D:\\University\\SupplyChainDapp-Final-Project\\contracts\\SupplyChain.sol",
  "compiler": {
    "name": "solc",
    "version": "0.8.21+commit.d9974bed.Emscripten.clang"
  },
  "schemaVersion": "3.4.16",
  "updatedAt": "2025-01-02T11:52:00.030Z",
  "networkType": "ethereum",
  "devdoc": {
    "kind": "dev",
    "methods": {},
    "version": 1
  },
  "userdoc": {
    "kind": "user",
    "methods": {},
    "version": 1
  }
}