{
  "contractName": "SupplyChain",
  "abi": [
    {
      "anonymous": false,
      "inputs": [
        {
          "indexed": false,
          "internalType": "uint256",
          "name": "id",
          "type": "uint256"
        }
      ],
      "name": "LogForSale",
      "type": "event"
    },
    {
      "anonymous": false,
      "inputs": [
        {
          "indexed": false,
          "internalType": "uint256",
          "name": "id",
          "type": "uint256"
        }
      ],
      "name": "LogItemRemoved",
      "type": "event"
    },
    {
      "anonymous": false,
      "inputs": [
        {
          "indexed": false,
          "internalType": "uint256",
          "name": "id",
          "type": "uint256"
        }
      ],
      "name": "LogReceived",
      "type": "event"
    },
    {
      "anonymous": false,
      "inputs": [
        {
          "indexed": false,
          "internalType": "uint256",
          "name": "id",
          "type": "uint256"
        }
      ],
      "name": "LogShipped",
      "type": "event"
    },
    {
      "anonymous": false,
      "inputs": [
        {
          "indexed": false,
          "internalType": "uint256",
          "name": "id",
          "type": "uint256"
        }
      ],
      "name": "LogSold",
      "type": "event"
    },
    {
      "inputs": [],
      "name": "itemCounter",
      "outputs": [
        {
          "internalType": "uint256",
          "name": "",
          "type": "uint256"
        }
      ],
      "stateMutability": "view",
      "type": "function"
    },
    {
      "inputs": [
        {
          "internalType": "uint256",
          "name": "",
          "type": "uint256"
        }
      ],
      "name": "items",
      "outputs": [
        {
          "internalType": "uint256",
          "name": "id",
          "type": "uint256"
        },
        {
          "internalType": "string",
          "name": "name",
          "type": "string"
        },
        {
          "internalType": "uint256",
          "name": "price",
          "type": "uint256"
        },
        {
          "internalType": "uint256",
          "name": "quantity",
          "type": "uint256"
        },
        {
          "internalType": "enum SupplyChain.State",
          "name": "state",
          "type": "uint8"
        },
        {
          "internalType": "address payable",
          "name": "seller",
          "type": "address"
        },
        {
          "internalType": "address payable",
          "name": "buyer",
          "type": "address"
        }
      ],
      "stateMutability": "view",
      "type": "function"
    },
    {
      "inputs": [
        {
          "internalType": "string",
          "name": "_name",
          "type": "string"
        },
        {
          "internalType": "uint256",
          "name": "_price",
          "type": "uint256"
        },
        {
          "internalType": "uint256",
          "name": "_quantity",
          "type": "uint256"
        }
      ],
      "name": "addItem",
      "outputs": [],
      "stateMutability": "nonpayable",
      "type": "function"
    },
    {
      "inputs": [
        {
          "internalType": "uint256",
          "name": "_id",
          "type": "uint256"
        },
        {
          "internalType": "uint256",
          "name": "_quantity",
          "type": "uint256"
        }
      ],
      "name": "buyItem",
      "outputs": [],
      "stateMutability": "payable",
      "type": "function"
    },
    {
      "inputs": [
        {
          "internalType": "uint256",
          "name": "_id",
          "type": "uint256"
        }
      ],
      "name": "removeItem",
      "outputs": [],
      "stateMutability": "nonpayable",
      "type": "function"
    },
    {
      "inputs": [
        {
          "internalType": "uint256",
          "name": "_id",
          "type": "uint256"
        }
      ],
      "name": "shipItem",
      "outputs": [],
      "stateMutability": "nonpayable",
      "type": "function"
    },
    {
      "inputs": [
        {
          "internalType": "uint256",
          "name": "_id",
          "type": "uint256"
        }
      ],
      "name": "receiveItem",
      "outputs": [],
      "stateMutability": "nonpayable",
      "type": "function"
    }
  ],
  "bytecode": "0x608060405234801561000f575f80fd5b506118688061001d5f395ff3fe60806040526004361061006f575f3560e01c8063a26be9991161004d578063a26be999146100e1578063bfb231d214610109578063d5e6c3331461014b578063f61c899a146101735761006f565b80636d6d00ed14610073578063713291711461009d5780639979c009146100c5575b5f80fd5b34801561007e575f80fd5b5061008761019b565b6040516100949190610c05565b60405180910390f35b3480156100a8575f80fd5b506100c360048036038101906100be9190610c59565b6101a1565b005b6100df60048036038101906100da9190610c84565b6102c5565b005b3480156100ec575f80fd5b5061010760048036038101906101029190610c59565b610552565b005b348015610114575f80fd5b5061012f600480360381019061012a9190610c59565b6106e5565b6040516101429796959493929190610dfe565b60405180910390f35b348015610156575f80fd5b50610171600480360381019061016c9190610f9e565b6107f3565b005b34801561017e575f80fd5b5061019960048036038101906101949190610c59565b610a01565b005b60015481565b5f805f8381526020019081526020015f205f0154036101f5576040517f08c379a00000000000000000000000000000000000000000000000000000000081526004016101ec90611054565b60405180910390fd5b5f808281526020019081526020015f205f8082015f9055600182015f61021b9190610b95565b600282015f9055600382015f9055600482015f6101000a81549060ff02191690556004820160016101000a81549073ffffffffffffffffffffffffffffffffffffffff0219169055600582015f6101000a81549073ffffffffffffffffffffffffffffffffffffffff021916905550507f2898e2b95651c99aeb328d049d8f35158543b4bc8d190a3ac0a908b8548e50ea816040516102ba9190610c05565b60405180910390a150565b5f805f8481526020019081526020015f209050600160048111156102ec576102eb610d4c565b5b816004015f9054906101000a900460ff16600481111561030f5761030e610d4c565b5b1461034f576040517f08c379a0000000000000000000000000000000000000000000000000000000008152600401610346906110bc565b60405180910390fd5b8181600301541015610396576040517f08c379a000000000000000000000000000000000000000000000000000000000815260040161038d90611124565b60405180910390fd5b8181600201546103a6919061116f565b3410156103e8576040517f08c379a00000000000000000000000000000000000000000000000000000000081526004016103df906111fa565b60405180910390fd5b81816003015f8282546103fb9190611218565b925050819055505f81600301540361043a576002816004015f6101000a81548160ff0219169083600481111561043457610433610d4c565b5b02179055505b5f8160040160019054906101000a900473ffffffffffffffffffffffffffffffffffffffff1673ffffffffffffffffffffffffffffffffffffffff16838360020154610486919061116f565b60405161049290611278565b5f6040518083038185875af1925050503d805f81146104cc576040519150601f19603f3d011682016040523d82523d5f602084013e6104d1565b606091505b5050905080610515576040517f08c379a000000000000000000000000000000000000000000000000000000000815260040161050c906112d6565b60405180910390fd5b7fe64ca8c671e48636f85f3008c1dd538e36bfa74fb6f2790b56b72fcc33b879ef846040516105449190610c05565b60405180910390a150505050565b805f808281526020019081526020015f206005015f9054906101000a900473ffffffffffffffffffffffffffffffffffffffff1673ffffffffffffffffffffffffffffffffffffffff163373ffffffffffffffffffffffffffffffffffffffff16146105f3576040517f08c379a00000000000000000000000000000000000000000000000000000000081526004016105ea9061133e565b60405180910390fd5b5f805f8481526020019081526020015f2090506003600481111561061a57610619610d4c565b5b816004015f9054906101000a900460ff16600481111561063d5761063c610d4c565b5b1461067d576040517f08c379a0000000000000000000000000000000000000000000000000000000008152600401610674906113a6565b60405180910390fd5b6004816004015f6101000a81548160ff021916908360048111156106a4576106a3610d4c565b5b02179055507f5a98827d06afe0e04647b3aed26f1ffb77171ad9ac41603c4ef623a6638798c1836040516106d89190610c05565b60405180910390a1505050565b5f602052805f5260405f205f91509050805f015490806001018054610709906113f1565b80601f0160208091040260200160405190810160405280929190818152602001828054610735906113f1565b80156107805780601f1061075757610100808354040283529160200191610780565b820191905f5260205f20905b81548152906001019060200180831161076357829003601f168201915b505050505090806002015490806003015490806004015f9054906101000a900460ff16908060040160019054906101000a900473ffffffffffffffffffffffffffffffffffffffff1690806005015f9054906101000a900473ffffffffffffffffffffffffffffffffffffffff16905087565b5f8111610835576040517f08c379a000000000000000000000000000000000000000000000000000000000815260040161082c90611491565b60405180910390fd5b60015f815480929190610847906114af565b91905055506040518060e0016040528060015481526020018481526020018381526020018281526020016001600481111561088557610884610d4c565b5b81526020013373ffffffffffffffffffffffffffffffffffffffff1681526020015f73ffffffffffffffffffffffffffffffffffffffff168152505f8060015481526020019081526020015f205f820151815f015560208201518160010190816108ef9190611693565b5060408201518160020155606082015181600301556080820151816004015f6101000a81548160ff0219169083600481111561092e5761092d610d4c565b5b021790555060a08201518160040160016101000a81548173ffffffffffffffffffffffffffffffffffffffff021916908373ffffffffffffffffffffffffffffffffffffffff16021790555060c0820151816005015f6101000a81548173ffffffffffffffffffffffffffffffffffffffff021916908373ffffffffffffffffffffffffffffffffffffffff1602179055509050507f4627c48065af2a9648cbecdd4b9da340c00e501243cd49a8a71c30c987e8b7616001546040516109f49190610c05565b60405180910390a1505050565b805f808281526020019081526020015f2060040160019054906101000a900473ffffffffffffffffffffffffffffffffffffffff1673ffffffffffffffffffffffffffffffffffffffff163373ffffffffffffffffffffffffffffffffffffffff1614610aa3576040517f08c379a0000000000000000000000000000000000000000000000000000000008152600401610a9a906117ac565b60405180910390fd5b5f805f8481526020019081526020015f20905060026004811115610aca57610ac9610d4c565b5b816004015f9054906101000a900460ff166004811115610aed57610aec610d4c565b5b14610b2d576040517f08c379a0000000000000000000000000000000000000000000000000000000008152600401610b2490611814565b60405180910390fd5b6003816004015f6101000a81548160ff02191690836004811115610b5457610b53610d4c565b5b02179055507feaf695929fec8154f0eafe7248c0e16855eb9ad09e623be92f669e544d53e85683604051610b889190610c05565b60405180910390a1505050565b508054610ba1906113f1565b5f825580601f10610bb25750610bcf565b601f0160209004905f5260205f2090810190610bce9190610bd2565b5b50565b5b80821115610be9575f815f905550600101610bd3565b5090565b5f819050919050565b610bff81610bed565b82525050565b5f602082019050610c185f830184610bf6565b92915050565b5f604051905090565b5f80fd5b5f80fd5b610c3881610bed565b8114610c42575f80fd5b50565b5f81359050610c5381610c2f565b92915050565b5f60208284031215610c6e57610c6d610c27565b5b5f610c7b84828501610c45565b91505092915050565b5f8060408385031215610c9a57610c99610c27565b5b5f610ca785828601610c45565b9250506020610cb885828601610c45565b9150509250929050565b5f81519050919050565b5f82825260208201905092915050565b5f5b83811015610cf9578082015181840152602081019050610cde565b5f8484015250505050565b5f601f19601f8301169050919050565b5f610d1e82610cc2565b610d288185610ccc565b9350610d38818560208601610cdc565b610d4181610d04565b840191505092915050565b7f4e487b71000000000000000000000000000000000000000000000000000000005f52602160045260245ffd5b60058110610d8a57610d89610d4c565b5b50565b5f819050610d9a82610d79565b919050565b5f610da982610d8d565b9050919050565b610db981610d9f565b82525050565b5f73ffffffffffffffffffffffffffffffffffffffff82169050919050565b5f610de882610dbf565b9050919050565b610df881610dde565b82525050565b5f60e082019050610e115f83018a610bf6565b8181036020830152610e238189610d14565b9050610e326040830188610bf6565b610e3f6060830187610bf6565b610e4c6080830186610db0565b610e5960a0830185610def565b610e6660c0830184610def565b98975050505050505050565b5f80fd5b5f80fd5b7f4e487b71000000000000000000000000000000000000000000000000000000005f52604160045260245ffd5b610eb082610d04565b810181811067ffffffffffffffff82111715610ecf57610ece610e7a565b5b80604052505050565b5f610ee1610c1e565b9050610eed8282610ea7565b919050565b5f67ffffffffffffffff821115610f0c57610f0b610e7a565b5b610f1582610d04565b9050602081019050919050565b828183375f83830152505050565b5f610f42610f3d84610ef2565b610ed8565b905082815260208101848484011115610f5e57610f5d610e76565b5b610f69848285610f22565b509392505050565b5f82601f830112610f8557610f84610e72565b5b8135610f95848260208601610f30565b91505092915050565b5f805f60608486031215610fb557610fb4610c27565b5b5f84013567ffffffffffffffff811115610fd257610fd1610c2b565b5b610fde86828701610f71565b9350506020610fef86828701610c45565b925050604061100086828701610c45565b9150509250925092565b7f4974656d20646f6573206e6f74206578697374000000000000000000000000005f82015250565b5f61103e601383610ccc565b91506110498261100a565b602082019050919050565b5f6020820190508181035f83015261106b81611032565b9050919050565b7f4974656d206e6f7420666f722073616c650000000000000000000000000000005f82015250565b5f6110a6601183610ccc565b91506110b182611072565b602082019050919050565b5f6020820190508181035f8301526110d38161109a565b9050919050565b7f4e6f7420656e6f756768207175616e7469747920617661696c61626c650000005f82015250565b5f61110e601d83610ccc565b9150611119826110da565b602082019050919050565b5f6020820190508181035f83015261113b81611102565b9050919050565b7f4e487b71000000000000000000000000000000000000000000000000000000005f52601160045260245ffd5b5f61117982610bed565b915061118483610bed565b925082820261119281610bed565b915082820484148315176111a9576111a8611142565b5b5092915050565b7f496e73756666696369656e74207061796d656e740000000000000000000000005f82015250565b5f6111e4601483610ccc565b91506111ef826111b0565b602082019050919050565b5f6020820190508181035f830152611211816111d8565b9050919050565b5f61122282610bed565b915061122d83610bed565b925082820390508181111561124557611244611142565b5b92915050565b5f81905092915050565b50565b5f6112635f8361124b565b915061126e82611255565b5f82019050919050565b5f61128282611258565b9150819050919050565b7f5472616e7366657220746f2073656c6c6572206661696c6564000000000000005f82015250565b5f6112c0601983610ccc565b91506112cb8261128c565b602082019050919050565b5f6020820190508181035f8301526112ed816112b4565b9050919050565b7f4e6f7420617574686f72697a65643a204f6e6c792062757965720000000000005f82015250565b5f611328601a83610ccc565b9150611333826112f4565b602082019050919050565b5f6020820190508181035f8301526113558161131c565b9050919050565b7f4974656d206e6f742073686970706564207965740000000000000000000000005f82015250565b5f611390601483610ccc565b915061139b8261135c565b602082019050919050565b5f6020820190508181035f8301526113bd81611384565b9050919050565b7f4e487b71000000000000000000000000000000000000000000000000000000005f52602260045260245ffd5b5f600282049050600182168061140857607f821691505b60208210810361141b5761141a6113c4565b5b50919050565b7f5175616e74697479206d7573742062652067726561746572207468616e207a655f8201527f726f000000000000000000000000000000000000000000000000000000000000602082015250565b5f61147b602283610ccc565b915061148682611421565b604082019050919050565b5f6020820190508181035f8301526114a88161146f565b9050919050565b5f6114b982610bed565b91507fffffffffffffffffffffffffffffffffffffffffffffffffffffffffffffffff82036114eb576114ea611142565b5b600182019050919050565b5f819050815f5260205f209050919050565b5f6020601f8301049050919050565b5f82821b905092915050565b5f600883026115527fffffffffffffffffffffffffffffffffffffffffffffffffffffffffffffffff82611517565b61155c8683611517565b95508019841693508086168417925050509392505050565b5f819050919050565b5f61159761159261158d84610bed565b611574565b610bed565b9050919050565b5f819050919050565b6115b08361157d565b6115c46115bc8261159e565b848454611523565b825550505050565b5f90565b6115d86115cc565b6115e38184846115a7565b505050565b5b81811015611606576115fb5f826115d0565b6001810190506115e9565b5050565b601f82111561164b5761161c816114f6565b61162584611508565b81016020851015611634578190505b61164861164085611508565b8301826115e8565b50505b505050565b5f82821c905092915050565b5f61166b5f1984600802611650565b1980831691505092915050565b5f611683838361165c565b9150826002028217905092915050565b61169c82610cc2565b67ffffffffffffffff8111156116b5576116b4610e7a565b5b6116bf82546113f1565b6116ca82828561160a565b5f60209050601f8311600181146116fb575f84156116e9578287015190505b6116f38582611678565b86555061175a565b601f198416611709866114f6565b5f5b828110156117305784890151825560018201915060208501945060208101905061170b565b8683101561174d5784890151611749601f89168261165c565b8355505b6001600288020188555050505b505050505050565b7f4e6f7420617574686f72697a65643a204f6e6c792073656c6c657200000000005f82015250565b5f611796601b83610ccc565b91506117a182611762565b602082019050919050565b5f6020820190508181035f8301526117c38161178a565b9050919050565b7f4974656d206e6f7420736f6c64207965740000000000000000000000000000005f82015250565b5f6117fe601183610ccc565b9150611809826117ca565b602082019050919050565b5f6020820190508181035f83015261182b816117f2565b905091905056fea264697066735822122065cf43cbfa96100c94a019c8b45c7b20da77159714476bb60f4ea33e3bdd3c4964736f6c63430008150033",
  "immutableReferences": {},
  "source": "// SPDX-License-Identifier: MIT\npragma solidity ^0.8.21;\n\ncontract SupplyChain {\n    enum State { Created, ForSale, Sold, Shipped, Received }\n\n    struct Item {\n        uint256 id;\n        string name;\n        uint256 price;\n        uint256 quantity; // Added quantity field\n        State state;\n        address payable seller;\n        address payable buyer;\n    }\n\n    mapping(uint256 => Item) public items;\n    uint256 public itemCounter;\n\n    event LogForSale(uint256 id);\n    event LogSold(uint256 id);\n    event LogShipped(uint256 id);\n    event LogReceived(uint256 id);\n    event LogItemRemoved(uint256 id);\n\n    modifier onlySeller(uint256 _id) {\n        require(msg.sender == items[_id].seller, \"Not authorized: Only seller\");\n        _;\n    }\n\n    modifier onlyBuyer(uint256 _id) {\n        require(msg.sender == items[_id].buyer, \"Not authorized: Only buyer\");\n        _;\n    }\n\n    function addItem(string memory _name, uint256 _price, uint256 _quantity) public {\n        require(_quantity > 0, \"Quantity must be greater than zero\");\n        itemCounter++;\n        items[itemCounter] = Item({\n            id: itemCounter,\n            name: _name,\n            price: _price,\n            quantity: _quantity,\n            state: State.ForSale,\n            seller: payable(msg.sender),\n            buyer: payable(address(0))\n        });\n        emit LogForSale(itemCounter);\n    }\n\n    function buyItem(uint256 _id, uint256 _quantity) public payable {\n        Item storage item = items[_id];\n        require(item.state == State.ForSale, \"Item not for sale\");\n        require(item.quantity >= _quantity, \"Not enough quantity available\");\n        require(msg.value >= item.price * _quantity, \"Insufficient payment\");\n\n        item.quantity -= _quantity;\n\n        // If all items are sold, update the state to Sold\n        if (item.quantity == 0) {\n            item.state = State.Sold;\n        }\n\n        // Transfer funds to the seller\n        (bool success, ) = item.seller.call{value: item.price * _quantity}(\"\");\n        require(success, \"Transfer to seller failed\");\n\n        emit LogSold(_id);\n    }\n\n    function removeItem(uint256 _id) public {\n        require(items[_id].id != 0, \"Item does not exist\");\n        delete items[_id];\n        emit LogItemRemoved(_id);\n    }\n\n    function shipItem(uint256 _id) public onlySeller(_id) {\n        Item storage item = items[_id];\n        require(item.state == State.Sold, \"Item not sold yet\");\n        item.state = State.Shipped;\n        emit LogShipped(_id);\n    }\n\n    function receiveItem(uint256 _id) public onlyBuyer(_id) {\n        Item storage item = items[_id];\n        require(item.state == State.Shipped, \"Item not shipped yet\");\n        item.state = State.Received;\n        emit LogReceived(_id);\n    }\n}\n",
  "sourcePath": "D:\\University\\SupplyChainDapp-Final-Project-master\\contracts\\SupplyChain.sol",
  "compiler": {
    "name": "solc",
    "version": "0.8.21+commit.d9974bed.Emscripten.clang"
  },
  "schemaVersion": "3.4.16",
  "updatedAt": "2024-12-07T05:12:57.754Z",
  "devdoc": {
    "kind": "dev",
    "methods": {},
    "version": 1
  },
  "userdoc": {
    "kind": "user",
    "methods": {},
    "version": 1
  }
}